S00F000052544F535F48482E73726563DE
S113000082C00000A1C000009FC000009DC000008D
S11300109BC000000C94F43197C0000095C0000010
S113002093C0000091C000008FC000008DC000008C
S11300300C94AE1689C0000087C0000085C0000083
S113004083C0000081C000007FC000007DC00000AC
S11300507BC0000079C0000077C0000075C00000BC
S113006073C000001FC100006FC000006DC000001D
S11300706BC0000069C0000067C0000065C00000DC
S113008063C0000061C000005FC000005DC00000EC
S11300905BC0000059C0000057C0000055C00000FC
S11300A053C0000051C000004FC000004DC000000C
S11300B04BC0000049C0000047C0000045C000001C
S11300C043C0000041C000003FC000003DC000002C
S11300D03BC0000039C0000037C0000035C000003C
S11300E033C00000CF93DF931F921F92CDB7DEB7CA
S11300F09A8389830E94272580918A138230D0F3C2
S11301000E94C715F7CF11241FBECFEFD1E2DEBF87
S1130110CDBF00E00CBF19E0A0E0B2E0E0E3F4E7FB
S113012000E00BBF02C007900D92A03CB107D9F7C5
S113013023E1A0ECB9E001C01D92A33EB207E1F7B0
S11301400E9411320C94163A5BCFCF93DF93CDB754
S1130150DEB78091C5139091C613DF91CF910895B6
S1130160CF93DF93CDB7DEB7EA970FB6F894DEBF2F
S11301700FBECDBF9AAF89AF0E944D2298A38F8F37
S113018085E090E09A8389838091C7139091C81386
S11301900E94441B9C838B838B819C81892B41F01F
S11301A08B819C81489720F481E090E00E944B2150
S11301B08091C7139091C813BE01695F7F4F20E0FF
S11301C030E048E150E00E94451C9E838D838D8180
S11301D09E814897B1F488E1FE013796DE0191963D
S11301E001900D928A95E1F78091C5139091C61301
S11301F0BE016F5D7F4F20E040E050E00E94C817D1
S113020019C08D819E81892BA9F08B819C8148978F
S113021088F48E818F938D818F9385E197E0892F68
S11302208F9385E197E08F930E9426370F900F906C
S11302300F900F9029813A81CE014F96B9010E9407
S1130240D420A2CFCF93DF9300D01F92CDB7DEB7D7
S113025040E068E170E088E490E00E94A21A9A838A
S1130260898340E068E185E00E9441179C838B8389
S11302708B819C816BE777E00E945B1A8B819C8168
S11302809093C6138093C51389819A819093C81360
S11302908093C71300000F900F900F900F90DF9181
S11302A0CF9108951F920F9200905F000F92112436
S11302B000905B000F922F933F934F935F936F9344
S11302C07F938F939F93AF93BF93EF93FF93CF93BA
S11302D0DF9300D01F92CDB7DEB786EC90E0FC012F
S11302E080818B831C828091C7139091C8139E01D7
S11302F02C5F3F4FBE016D5F7F4F41E050E00E9495
S1130300601B9A83898389819A81019721F08BE804
S113031097E00E94393700000F900F900F900F90D4
S1130320DF91CF91FF91EF91BF91AF919F918F9109
S11303307F916F915F914F913F912F910F90009218
S11303405B000F9000925F000F901F901895CF9361
S1130350DF9300D01F92CDB7DEB799A181E09D3F16
S113036009F080E0882F90E09A83898398A181E046
S11303709E3F09F080E0882F90E09C838B838981E5
S11303809A81892B21F08B819C81892B19F48FEF21
S11303909FEF02C080E090E00F900F900F900F90BD
S11303A0DF91CF910895CF93DF93CDB7DEB78E81E0
S11303B0DF91CF910895CF93DF9300D01F92CDB7F3
S11303C0DEB78BA18F938AA18F932DB73EB72851A7
S11303D031090FB6F8943EBF0FBE2DBF8DB79EB73F
S11303E0019628E1FE013A96DC0101900D922A95CE
S11303F0E1F7B2D22DB73EB7265E3F4F0FB6F89461
S1130400DEBF0FBECDBFDC01CB0189839A83AB83F2
S1130410BC8389819A81AB81BC81BC01CD010E94DE
S11304204D2A81EB97E00E94393700000F900F901E
S11304300F900F90DF91CF910895CF93DF93CDB7B5
S1130440DEB7A2970FB6F894DEBF0FBECDBFCE01C4
S11304500396292F2F938F9322968FAD22978F93F4
S113046021968FAD21978F938DB79EB748970FB67E
S1130470F8949EBF0FBE8DBF8DB79EB7019628E13D
S1130480FE01B896DC0101900D922A95E1F787D11F
S11304908DB79EB74C960FB6F894DEBF0FBECDBF96
S11304A01A8219821EC089819A81880F991F880F28
S11304B0991F880F991F9E012F5F3F4F820F931F33
S11304C0FC0132962081318142815381648175819E
S11304D0868197810E948E2A89819A8101969A83C6
S11304E0898389819A810497F4F286ED97E00E94CA
S11304F039370000A2960FB6F894DEBF0FBECDBF09
S1130500DF91CF910895CF93DF9300D01F921F9274
S1130510CDB7DEB72DB73EB7285131090FB6F894E1
S11305203EBF0FBE2DBF8DB79EB7019628E1FE01D9
S11305303B96DC0101900D922A95E1F708DFEDB7B7
S1130540FEB778960FB6F894DEBF0FBECDBF9C837E
S11305508B838B819C819923E4F586E098E00E944B
S113056039378CE498E0892F8F938CE498E08F934B
S11305700E9426370F900F901A82198221C0898118
S11305809A812BE030E02C0F3D1F820F931FFC015A
S11305908081882F90E0292F2F938F9387E598E00F
S11305A0892F8F9387E598E08F930E9426370F90C9
S11305B00F900F900F9089819A8101969A83898375
S11305C089819A814897DCF28CE598E00E9439375A
S11305D087C02DB73EB7285131090FB6F8943EBFF6
S11305E00FBE2DBF8DB79EB7019628E1FE013B9645
S11305F0DC0101900D922A95E1F7D5DEEDB7FEB747
S113060078960FB6F894DEBF0FBECDBF8D838D8173
S1130610882F90E08230910531F08330910529F1E3
S1130620019741F149C08CA18F938BA18F932DB772
S11306303EB7285131090FB6F8943EBF0FBE2DBF07
S11306408DB79EB7019628E1FE013B96DC0101902F
S11306500D922A95E1F7F1DE8DB79EB74A960FB653
S1130660F894DEBF0FBECDBF3BC08FE598E00E947B
S1130670393736C08CA18F938BA18F93EDB7FEB71A
S113068078970FB6F894FEBF0FBEEDBF8DB79EB737
S1130690019628E1FE013B96DC0101900D922A951A
S11306A0E1F789DE2DB73EB7265E3F4F0FB6F894CB
S11306B0DEBF0FBECDBF14C08D81882F90E0292FDF
S11306C02F938F9386E898E0892F8F9386E898E09C
S11306D08F930E9426370F900F900F900F90000079
S11306E00F900F900F900F900F90DF91CF9108957E
S11306F0CF93DF93CDB7DEB7A2970FB6F894DEBFE2
S11307000FBECDBF9AA389A30E944D2298878F83E1
S11307108AE090E09A83898389A19AA19C838B8340
S11307208B819C81FC01828193819E838D839E01B8
S1130730275F3F4F8D819E814AE050E0B9010E94BE
S11307402B18813021F58B819C81FC018081918162
S1130750292F2F938F938DB79EB748970FB6F89490
S11307609EBF0FBE8DBF8DB79EB7019628E1FE01D7
S11307703996DC0101900D922A95E1F7C4DEEDB7BC
S1130780FEB77A960FB6F894DEBF0FBECDBF2981AF
S11307903A81CE010796B9010E94D420C8CFCF93E5
S11307A0DF93CDB7DEB762970FB6F894DEBF0FBE06
S11307B0CDBF898D882F90E0382F22278A8D882FEE
S11307C090E0822B932B9C838B838B8D882F90E0DE
S11307D0382F22278C8D882F90E0822B932B9C8797
S11307E08B878D8D882F90E0382F22278E8D882F30
S11307F090E0822B932B9E838D838F8D882F90E0A6
S1130800382F222788A1882F90E0822B932B9E8754
S11308108D8789A1882F90E0382F22278AA1882FDD
S113082090E0822B932B98878F838BA1882F90E065
S1130830382F22278CA1882F90E0822B932B988B22
S11308408F878DA1882F90E0382F22278EA1882FA3
S113085090E0822B932B9A8789878FA1882F90E031
S1130860382F222788A5882F90E0822B932B9A8BF0
S1130870898B1A82198261C089819A81880F991F94
S1130880880F991F880F991F2AA93BA9820F931FCC
S113089029813A81FC013383228389819A81880FDB
S11308A0991F880F991F880F991F2AA93BA9820FA6
S11308B0931F29813A81220F331FAE014F5F5F4F8F
S11308C0240F351F2E5F3F4FF90120813181FC0138
S11308D03583248389819A81880F991F880F991FF2
S11308E0880F991F2AA93BA9820F931F29813A8156
S11308F0220F331FAE014F5F5F4F240F351F265F5A
S11309003F4FF90120813181FC013783268389819E
S11309109A81880F991F880F991F880F991F2AA9F8
S11309203BA9820F931F28A939A9FC013183208395
S113093089819A8101969A83898389819A8104970E
S11309400CF49ACF000062960FB6F894DEBF0FBE87
S1130950CDBFDF91CF910895CF93DF9300D01F9245
S1130960CDB7DEB78AA19BA19A8389838B85882F13
S113097090E09C838B8389819A81AB81BC81BC018B
S1130980CD010F900F900F900F90DF91CF910895AC
S1130990CF93DF931F921F92CDB7DEB79A838983DB
S11309A088E290E02981FC0120838BE290E02BE235
S11309B030E0F90120812F77FC01208384E390E06B
S11309C024E330E0F90120812D7FFC01208384E3BE
S11309D090E024E330E0F90120812B7FFC012083A7
S11309E0000084E390E024E330E0F90120812460F6
S11309F0FC012083000000000F900F90DF91CF9145
S1130A000895CF93DF93CDB7DEB781E190E0C0DFE7
S1130A100000DF91CF910895CF93DF931F921F922F
S1130A20CDB7DEB79A83898382E290E029813A8147
S1130A30232F3327FC01208388E290E02981FC01E5
S1130A4020838BE290E02BE230E0F90120812068E2
S1130A50FC01208384E390E024E330E0F901208169
S1130A602D7FFC01208384E390E024E330E0F9014E
S1130A7020812B7FFC012083000084E390E024E3A9
S1130A8030E0F90120812460FC0120830000000093
S1130A900F900F90DF91CF910895CF93DF931F9222
S1130AA0CDB7DEB7898386E390E072DF8981882F32
S1130AB090E0B2DF00000F90DF91CF910895CF93C3
S1130AC0DF931F92CDB7DEB789838AE390E060DFBE
S1130AD08981882F90E0A0DF00000F90DF91CF91F3
S1130AE00895CF93DF93CDB7DEB78CE290E050DF6B
S1130AF00000DF91CF910895CF93DF93CDB7DEB798
S1130B006C970FB6F894DEBF0FBECDBF83E390E0C1
S1130B1023E330E0F90120812760FC0120838AE28D
S1130B2090E02AE230E0F90120812068FC01208372
S1130B3081E290E0FC01808181E290E02FEFFC01F2
S1130B40208387E290E0FC01808187E290E02FEF30
S1130B50FC01208384E390E024E330E0F901208168
S1130B602760FC0120838BE290E02BE230E0F90166
S1130B7020812068FC01208384E390E024E330E0BA
S1130B80F90120812E7FFC01208380E090E0AAEF10
S1130B90B3E489839A83AB83BC8320E030E04AE7E3
S1130BA055E469817A818B819C810E946936DC01DC
S1130BB0CB018B8B9C8BAD8BBE8B20E030E040E86F
S1130BC05FE36B897C898D899E890E941B3588230C
S1130BD02CF481E090E0988F8F8B3FC020E03FEFB2
S1130BE04FE757E46B897C898D899E890E9465361D
S1130BF018164CF520E030E040E251E469817A8136
S1130C008B819C810E946936DC01CB01BC01CD0142
S1130C100E948735DC01CB01988F8F8B0FC080E950
S1130C2091E09A8F898F898D9A8D0197F1F79A8F28
S1130C30898F8F89988D0197988F8F8B8F89988D45
S1130C40892B69F714C06B897C898D899E890E94E0
S1130C508735DC01CB01988F8F8B8F89988D9C8F82
S1130C608B8F8B8D9C8D0197F1F79C8F8B8F84E3F9
S1130C7090E024E330E0F90120812160FC0120832D
S1130C8080E090E0A2E0B3E48D839E83AF83B887D5
S1130C9020E030E04AE755E46D817E818F819885BC
S1130CA00E946936DC01CB0189879A87AB87BC87B0
S1130CB020E030E040E85FE369857A858B859C8598
S1130CC00E941B3588232CF481E090E09E878D8759
S1130CD03FC020E03FEF4FE757E469857A858B8575
S1130CE09C850E94653618164CF520E030E040E201
S1130CF051E46D817E818F8198850E946936DC0183
S1130D00CB01BC01CD010E948735DC01CB019E875C
S1130D108D870FC080E991E0988B8F878F859889A4
S1130D200197F1F7988B8F878D859E8501979E8714
S1130D308D878D859E85892B69F714C069857A8591
S1130D408B859C850E948735DC01CB019E878D872E
S1130D508D859E859A8B898B89899A890197F1F76C
S1130D609A8B898B4EDE32D188E097DE85E0A7DE50
S1130D7000006C960FB6F894DEBF0FBECDBFDF91B6
S1130D80CF910895CF93DF9300D01F92CDB7DEB7F4
S1130D909A8389837C836B838AE290E0F9DD89817D
S1130DA09A81892F992738DE89819A8135DE8B8152
S1130DB09C81892F992730DE8B819C812DDE000058
S1130DC00F900F900F900F90DF91CF910895CF93D4
S1130DD0DF9300D01F92CDB7DEB79A8389837C83DB
S1130DE06B838BE290E0D4DD89819A81892F9927E6
S1130DF013DE89819A8110DE8B819C81892F99274A
S1130E000BDE8B819C8108DE00000F900F900F9009
S1130E100F90DF91CF910895CF93DF93CDB7DEB7D5
S1130E2027970FB6F894DEBF0FBECDBF9A83898390
S1130E307C836B832D833E834F8329813A8189810F
S1130E409A81B901C4DF2B813C818B819C81B901DA
S1130E5099DF47DE8D81882F90E09C01322F222775
S1130E60330F330F330F8E81882F90E0880F991F33
S1130E7082959295907F9827807F9827282B392BED
S1130E808F81882F90E0822B932BC6DD000027965C
S1130E900FB6F894DEBF0FBECDBFDF91CF9108959A
S1130EA0CF93DF9300D0CDB7DEB769837A838B838A
S1130EB08981882F90E09C01322F2227330F330F32
S1130EC0330F8A81882F90E0880F991F829592951D
S1130ED0907F9827807F9827282B392B8B81882F08
S1130EE090E0822B932B98DD00000F900F900F90D1
S1130EF0DF91CF910895EF92FF920F93CF93DF93F9
S1130F00CDB7DEB72F970FB6F894DEBF0FBECDBFB7
S1130F109E838D8378876F835A8749873C872B8785
S1130F20ED86FE860F872D813E8189859A85280F5F
S1130F30391F8D819E81B9014ADF2F8138858B85C8
S1130F409C85280F391F8F819885B9011BDFC9DD66
S1130F5019821A821B821C8211C08D859E85AF85E1
S1130F60BC018A2F9DDF89819A81AB81BC81019666
S1130F70A11DB11D89839A83AB83BC8389859A851E
S1130F8001969C0140E050E08B859C850196CC0144
S1130F90A0E0B0E0BC01CD010E94CC369B01AC01C5
S1130FA089819A81AB81BC8182179307A407B50715
S1130FB0A0F200002F960FB6F894DEBF0FBECDBF8F
S1130FC0DF91CF910F91FF90EF900895CF93DF932E
S1130FD0CDB7DEB789E290E0DBDC0000DF91CF9192
S1130FE00895EF92FF920F931F93CF93DF93CDB7A2
S1130FF0DEB729970FB6F894DEBF0FBECDBF9A8334
S113100089837C836B835E834D830F831887298751
S11310108F819885A9852D813E816B817C81E981B1
S1131020FA817C010A2F41E050E0CF0164DF000027
S113103029960FB6F894DEBF0FBECDBFDF91CF91D6
S11310401F910F91FF90EF9008958F929F92AF920E
S1131050BF92CF92DF92EF92FF920F931F93CF93A1
S1131060DF93CDB7DEB763970FB6F894DEBF0FBE3C
S1131070CDBF9E838D8378876F8349870A871B87BB
S11310802C87CD86DE86EF86B98AA88A9B8A8A8ACF
S11310901982E1C08985282F30E0C901880F991F82
S11310A0880F991F280F391F8981082E000C990B6E
S11310B0820F931F80509E4FFC018081882F90E007
S11310C09B838A831C82C0C08A819B8181709927FB
S11310D0892B09F452C0888999890197F1F48A8986
S11310E09B890197D1F48C81282F880F330B8F8132
S11310F09885B901680F791F8981282F880F330BD0
S11311008D819E81F901E80FF91F8A859B85AC8545
S11311109C014A2FCF0180DE8EC08C81482F880F1E
S1131120550B8A899B89489F9001499F300D589F90
S1131130300D11248F819885B901680F791F898139
S1131140482F880F550B88899989489F9001499F9A
S1131150300D589F300D11248D819E81F901E80FC7
S1131160F91F8A859B85AC852A893B8948895989D9
S11311707C010A2FCF01BFDE5EC09F858C85981746
S113118049F49E858B85981729F49D858A8598173F
S113119009F451C0888999890197F1F48A899B8956
S11311A00197D1F48C81282F880F330B8F81988578
S11311B0B901680F791F8981282F880F330B8D811E
S11311C09E81F901E80FF91F8D859E85AF859C01ED
S11311D04A2FCF0121DE2FC08C81482F880F550B59
S11311E08A899B89489F9001499F300D589F300DF3
S11311F011248F819885B901680F791F8981482F3F
S1131200880F550B88899989489F9001499F300D13
S1131210589F300D11248D819E81F901E80FF91F2B
S11312208D859E85AF852A893B89488959897C01AA
S11312300A2FCF0160DE8C818F5F8C838A819B8132
S1131240969587959B838A838C8188300CF43CCF58
S113125089818F5F8983898185300CF41BCF9F85B9
S11312608C85981741F49E858B85981721F49D856C
S11312708A859817D9F1888999890197A1F48A896F
S11312809B89019781F48D819E81FC0135968D8522
S11312909E85AF856F8178858C012A2F48E050E0C8
S11312A0CF019FDE23C08A899B896C01CC0CDD1C95
S11312B0CC0CDD1CCC0CDD1C28893989C901880FB4
S11312C0991F880F991F280F391F8D819E81F9015D
S11312D0E80FF91F8D859E85AF85488959896F81EF
S11312E078857C010A2F9601CF0105DE0000639604
S11312F00FB6F894DEBF0FBECDBFDF91CF911F9123
S11313000F91FF90EF90DF90CF90BF90AF909F90A0
S11313108F900895CF93DF931F92CDB7DEB781E00E
S113132091E021E031E0F90120812860FC01208373
S11313308DE290E02DE230E0F90120812861FC018A
S113134020838DE290E02DE230E0F90120812F7CB2
S1131350FC01208383E390E023E330E0F901208162
S11313602062FC0120838EE290E02EE230E0F9015D
S113137020812860FC0120838EE290E02EE230E0A0
S1131380F90120812062FC01208388E0898382E0C6
S113139091E020E031E0F9012081322F298120956C
S11313A02323FC01208300000F90DF91CF91089547
S11313B0CF93DF9300D01F92CDB7DEB79A83898392
S11313C06B834C838C818823B9F089819A81FC01D9
S11313D0808191812B81422F50E021E030E002C0D6
S11313E0220F331F4A95E2F7282B392B89819A81E2
S11313F0FC013183208318C089819A81FC0180819A
S113140091812B81422F50E021E030E002C0220F75
S1131410331F4A95E2F72095309528233923898193
S11314209A81FC013183208300000F900F900F906C
S11314300F90DF91CF910895CF93DF9300D0CDB774
S1131440DEB79A8389836B8389819A81FC018081C9
S1131450882F90E02B81222F30E002C0959587954C
S11314602A95E2F78170992721E0892B09F420E07D
S1131470822F0F900F900F90DF91CF910895CF930B
S1131480DF931F92CDB7DEB78CE290E0FC01808140
S11314908072898389818295869587700F90DF9108
S11314A0CF910895CF93DF93CDB7DEB7A1970FB651
S11314B0F894DEBF0FBECDBF88E089838EE290E052
S11314C02CE230E0F9012081322F29812095232359
S11314D0FC01208380E090E0A0E0B0E48A839B8359
S11314E0AC83BD832BEA3AEA4AEA50E46A817B8101
S11314F08C819D810E946936DC01CB018E839F83A0
S1131500A887B98720E030E040E850E46A817B8115
S11315108C819D810E946936DC01CB018A879B877F
S1131520AC87BD8720E030E040E85FE36E817F81D7
S1131530888599850E941B3588231CF481E08E8759
S1131540B2C020E03FEF4FE757E46A857B858C8586
S11315509D850E94653618160CF07BC020E030E0B3
S11315604AE754E46A817B818C819D810E941F3506
S1131570DC01CB018F87988BA98BBA8B20E030E0FC
S11315804AE755E46F85788989899A890E94693682
S1131590DC01CB018B8B9C8BAD8BBE8B20E030E0D0
S11315A040E85FE36B897C898D899E890E941B35A5
S11315B088232CF481E090E0988F8F8B3FC020E04B
S11315C03FEF4FE757E46B897C898D899E890E94A0
S11315D0653618164CF520E030E040E251E46F85A2
S11315E0788989899A890E946936DC01CB01BC011A
S11315F0CD010E948735DC01CB01988F8F8B0FC002
S113160080E991E09A8F898F898D9A8D0197F1F7FE
S11316109A8F898F8F89988D0197988F8F8B8F8957
S1131620988D892B69F73FC06B897C898D899E8948
S11316300E948735DC01CB01988F8F8B8F89988D21
S11316409C8F8B8F8B8D9C8D0197F1F79C8F8B8F4B
S11316502AC020E030E04FE753E46E817F81888523
S113166099850E9465361816ACF46A857B858C854D
S11316709D850E948735DC01CB019E8F8D8F8D8DDA
S11316809E8D98A38F8F8F8D98A10197F1F798A3C2
S11316908F8F0FC06E817F81888599850E948735E1
S11316A0DC01CB018E878E8589A389A18A95F1F708
S11316B089A30000A1960FB6F894DEBF0FBECDBF7C
S11316C0DF91CF910895CF93DF93CDB7DEB78EE24C
S11316D090E02EE230E0F90120812860FC012083B3
S11316E00000DF91CF910895CF93DF93CDB7DEB79C
S11316F082E091E022E031E0F90120812860FC01E0
S113170020830000DF91CF910895CF93DF931F9240
S1131710CDB7DEB788E0898382E091E020E031E054
S1131720F9012081322F298120952323FC01208374
S113173000000F90DF91CF910895CF93DF93CDB741
S1131740DEB7C054D1090FB6F894DEBF0FBECDBFCB
S1131750DCDF80E090E0A0E8BFE389839A83AB8379
S1131760BC832BEA3AEA4AEA50E469817A818B81A4
S11317709C810E946936DC01CB018DA39EA3AFA39B
S1131780B8A720E030E040E850E469817A818B8199
S11317909C810E946936DC01CB0189A79AA7ABA77B
S11317A0BCA720E030E040E85FE36DA17EA18FA1FB
S11317B098A50E941B3588231CF481E08DA7B2C034
S11317C020E03FEF4FE757E469A57AA58BA59CA5D8
S11317D00E94653618160CF07BC020E030E04AE722
S11317E054E469817A818B819C810E941F35DC01DC
S11317F0CB018EA79FA7A8ABB9AB20E030E04AE7A6
S113180055E46EA57FA588A999A90E946936DC01D3
S1131810CB018AAB9BABACABBDAB20E030E040E886
S11318205FE36AA97BA98CA99DA90E941B35882323
S11318302CF481E090E09FAB8EAB3FC020E03FEF03
S11318404FE757E46AA97BA98CA99DA90E94653634
S113185018164CF520E030E040E251E46EA57FA577
S113186088A999A90E946936DC01CB01BC01CD018C
S11318700E948735DC01CB019FAB8EAB0FC080E9A2
S113188091E099AF88AF88AD99AD0197F1F799AF21
S113189088AF8EA99FA901979FAB8EAB8EA99FA9F4
S11318A0892B69F73FC06AA97BA98CA99DA90E94CD
S11318B08735DC01CB019FAB8EAB8EA99FA99BAF73
S11318C08AAF8AAD9BAD0197F1F79BAF8AAF2AC06F
S11318D020E030E04FE753E46DA17EA18FA198A5ED
S11318E00E9465361816ACF469A57AA58BA59CA54B
S11318F00E948735DC01CB019DAF8CAF8CAD9DADD3
S11319009FAF8EAF8EAD9FAD0197F1F79FAF8EAFB6
S11319101CC06DA17EA18FA198A50E948735DC0112
S1131920CB018DA72DA5CE01805C9F4FFC012083A8
S1131930CE01805C9F4FFC018081282F2A95F1F70E
S1131940CE01805C9F4FFC012083CEDE80E090E0DE
S1131950A0E8BFE38D839E83AF83B8872BEA3AEA7E
S11319604AEA50E46D817E818F8198850E946936B0
S1131970DC01CB0189879A87AB87BC8720E030E004
S113198040E850E46D817E818F8198850E9469369C
S1131990DC01CB018D879E87AF87B88B20E030E0D8
S11319A040E85FE369857A858B859C850E941B35B9
S11319B088231CF481E0898BB2C020E03FEF4FE71D
S11319C057E46D857E858F8598890E946536181643
S11319D00CF07BC020E030E04AE754E46D817E8166
S11319E08F8198850E941F35DC01CB018A8B9B8BEC
S11319F0AC8BBD8B20E030E04AE755E46A897B89F3
S1131A008C899D890E946936DC01CB018E8B9F8B6A
S1131A10A88FB98F20E030E040E85FE36E897F89CA
S1131A20888D998D0E941B3588232CF481E090E0E9
S1131A309B8F8A8F3FC020E03FEF4FE757E46E89CA
S1131A407F89888D998D0E94653618164CF520E0A3
S1131A5030E040E251E46A897B898C899D890E9447
S1131A606936DC01CB01BC01CD010E948735DC0164
S1131A70CB019B8F8A8F0FC080E991E09D8F8C8F63
S1131A808C8D9D8D0197F1F79D8F8C8F8A8D9B8D09
S1131A9001979B8F8A8F8A8D9B8D892B69F73FC015
S1131AA06E897F89888D998D0E948735DC01CB01F1
S1131AB09B8F8A8F8A8D9B8D9F8F8E8F8E8D9F8D0E
S1131AC00197F1F79F8F8E8F2AC020E030E04FE717
S1131AD053E469857A858B859C850E946536181642
S1131AE0ACF46D857E858F8598890E948735DC01ED
S1131AF0CB0199A388A388A199A19BA38AA38AA1B6
S1131B009BA10197F1F79BA38AA30FC069857A85EE
S1131B108B859C850E948735DC01CB01898B898963
S1131B208CA38CA18A95F1F78CA30000C05CDF4FD5
S1131B300FB6F894DEBF0FBECDBFDF91CF910895ED
S1131B400F931F93CF93DF93CDB7DEB7C554D1095D
S1131B500FB6F894DEBF0FBECDBF9E012B5B3F4F87
S1131B60F90180831A82198237C22981CE018B5BE5
S1131B709F4F622F61DC8B838B81882379F480E211
S1131B808C8384E390E022E330E0F9012081322F5A
S1131B902C8120952323FC01208318C08B81813064
S1131BA0A9F484E390E024E330E0F9012081422F9A
S1131BB02B81222F30E0220F331F22953295307F64
S1131BC03227207F3227242BFC0120839EDD80E0F6
S1131BD090E0A0E8BFE38D839E83AF83B8872BEAB0
S1131BE03AEA4AEA50E46D817E818F8198850E94A9
S1131BF06936DC01CB0189A79AA7ABA7BCA720E073
S1131C0030E040E850E46D817E818F8198850E94A8
S1131C106936DC01CB018DA79EA7AFA7B8AB20E046
S1131C2030E040E85FE369A57AA58BA59CA50E94F6
S1131C301B3588231CF481E089ABC6C020E03FEF4C
S1131C404FE757E46DA57EA58FA598A90E94653638
S1131C5018160CF07BC020E030E04AE754E46D81B4
S1131C607E818F8198850E941F35DC01CB018AAB70
S1131C709BABACABBDAB20E030E04AE755E46AA9CE
S1131C807BA98CA99DA90E946936DC01CB018EAB8E
S1131C909FABA8AFB9AF20E030E040E85FE36EA9A6
S1131CA07FA988AD99AD0E941B3588232CF481E06F
S1131CB090E09BAF8AAF3FC020E03FEF4FE757E48F
S1131CC06EA97FA988AD99AD0E94653618164CF5AA
S1131CD020E030E040E251E46AA97BA98CA99DA9E7
S1131CE00E946936DC01CB01BC01CD010E9487351D
S1131CF0DC01CB019BAF8AAF0FC080E991E09DAFBF
S1131D008CAF8CAD9DAD0197F1F79DAF8CAF8AADD3
S1131D109BAD01979BAF8AAF8AAD9BAD892B69F7C9
S1131D2053C06EA97FA988AD99AD0E948735DC01A7
S1131D30CB019BAF8AAF8AAD9BAD9FAF8EAF8EAD0B
S1131D409FAD0197F1F79FAF8EAF3EC020E030E02A
S1131D504FE753E469A57AA58BA59CA50E94653637
S1131D6018164CF58E01005C1F4F6DA57EA58FA53E
S1131D7098A90E948735DC01CB01F8019183808307
S1131D80CE018E5B9F4F9E01205C3F4FF901208165
S1131D903181FC0131832083CE018E5B9F4FFC0196
S1131DA0808191810197F1F79E012E5B3F4FF901EC
S1131DB0918380831CC069A57AA58BA59CA50E94EC
S1131DC08735DC01CB0189ABCE018C5B9F4F29A900
S1131DD0FC012083CE018C5B9F4FFC018081282F66
S1131DE02A95F1F7CE018C5B9F4FFC0120837CDCAC
S1131DF080E090E0A0E8BFE389879A87AB87BC873F
S1131E002BEA3AEA4AEA50E469857A858B859C850F
S1131E100E946936DC01CB018D879E87AF87B88B22
S1131E2020E030E040E850E469857A858B859C8524
S1131E300E946936DC01CB01898B9A8BAB8BBC8BFE
S1131E4020E030E040E85FE36D857E858F859889EA
S1131E500E941B3588231CF481E08D8BB2C020E0E6
S1131E603FEF4FE757E469897A898B899C890E94FF
S1131E70653618160CF07BC020E030E04AE754E4E5
S1131E8069857A858B859C850E941F35DC01CB0191
S1131E908E8B9F8BA88FB98F20E030E04AE755E402
S1131EA06E897F89888D998D0E946936DC01CB010A
S1131EB08A8F9B8FAC8FBD8F20E030E040E85FE3DA
S1131EC06A8D7B8D8C8D9D8D0E941B3588232CF40F
S1131ED081E090E09F8F8E8F3FC020E03FEF4FE77F
S1131EE057E46A8D7B8D8C8D9D8D0E946536181606
S1131EF04CF520E030E040E251E46E897F89888D22
S1131F00998D0E946936DC01CB01BC01CD010E9490
S1131F108735DC01CB019F8F8E8F0FC080E991E064
S1131F2099A388A388A199A10197F1F799A388A3FC
S1131F308E8D9F8D01979F8F8E8F8E8D9F8D892B78
S1131F4069F73FC06A8D7B8D8C8D9D8D0E9487358E
S1131F50DC01CB019F8F8E8F8E8D9F8D9BA38AA3D7
S1131F608AA19BA10197F1F79BA38AA32AC020E031
S1131F7030E04FE753E46D857E858F8598890E9414
S1131F8065361816ACF469897A898B899C890E9414
S1131F908735DC01CB019DA38CA38CA19DA19FA3BC
S1131FA08EA38EA19FA10197F1F79FA38EA30FC0CB
S1131FB06D857E858F8598890E948735DC01CB01EC
S1131FC08D8B8D8988A788A58A95F1F788A7898143
S1131FD09A8101969A83898389819A8108970CF45E
S1131FE0C4CD0000CB5BDF4F0FB6F894DEBF0FBE4D
S1131FF0CDBFDF91CF911F910F910895CF93DF93C0
S1132000CDB7DEB7C554D1090FB6F894DEBF0FBE05
S1132010CDBF93DBCE018C5B9F4FFC0111821082FC
S113202080E190E09A83898312C25EDB80E090E0D5
S1132030A0E8BFE38B839C83AD83BE832BEA3AEA9B
S11320404AEA50E46B817C818D819E810E946936CD
S1132050DC01CB0188A799A7AAA7BBA720E030E0A1
S113206040E850E46B817C818D819E810E946936B9
S1132070DC01CB018CA79DA7AEA7BFA720E030E071
S113208040E85FE368A579A58AA59BA50E941B3556
S113209088231CF481E088ABC6C020E03FEF4FE703
S11320A057E46CA57DA58EA59FA50E9465361816DC
S11320B00CF07BC020E030E04AE754E46B817C8183
S11320C08D819E810E941F35DC01CB0189AB9AABC7
S11320D0ABABBCAB20E030E04AE755E469A97AA990
S11320E08BA99CA90E946936DC01CB018DAB9EAB08
S11320F0AFABB8AF20E030E040E85FE36DA97EA964
S11321008FA998AD0E941B3588232CF481E090E0C0
S11321109AAF89AF3FC020E03FEF4FE757E46DA986
S11321207EA98FA998AD0E94653618164CF520E05B
S113213030E040E251E469A97AA98BA99CA90E94E4
S11321406936DC01CB01BC01CD010E948735DC017D
S1132150CB019AAF89AF0FC080E991E09CAF8BAF00
S11321608BAD9CAD0197F1F79CAF8BAF89AD9AAD68
S113217001979AAF89AF89AD9AAD892B69F753C09E
S11321806DA97EA98FA998AD0E948735DC01CB018A
S11321909AAF89AF89AD9AAD9EAF8DAF8DAD9EAD2F
S11321A00197F1F79EAF8DAF3EC020E030E04FE7DE
S11321B053E468A579A58AA59BA50E9465361816DF
S11321C04CF56CA57DA58EA59FA50E948735DC01E5
S11321D0CB019E01215C3F4FF90191838083CE01A5
S11321E08F5B9F4F9E01215C3F4FF901208131811C
S11321F0FC0131832083CE018F5B9F4FFC018081E2
S113220091810197F1F79E012F5B3F4FF901918373
S113221080831CC068A579A58AA59BA50E948735E3
S1132220DC01CB0188ABCE018D5B9F4F28A9FC015B
S11322302083CE018D5B9F4FFC018081282F2A953E
S1132240F1F7CE018D5B9F4FFC0120835EDA80E0C5
S113225090E0A0E8BFE388879987AA87BB872BEA29
S11322603AEA4AEA50E4688579858A859B850E9422
S11322706936DC01CB018C879D87AE87BF8720E060
S113228030E040E850E4688579858A859B850E9422
S11322906936DC01CB01888B998BAA8BBB8B20E040
S11322A030E040E85FE36C857D858E859F850E94E4
S11322B01B3588231CF481E08C8BB2C020E03FEFF7
S11322C04FE757E4688979898A899B890E94653632
S11322D018160CF07BC020E030E04AE754E468852F
S11322E079858A859B850E941F35DC01CB018D8B06
S11322F09E8BAF8BB88F20E030E04AE755E46D89C0
S11323007E898F89988D0E946936DC01CB01898F83
S11323109A8FAB8FBC8F20E030E040E85FE3698D9B
S11323207A8D8B8D9C8D0E941B3588232CF481E043
S113233090E09E8F8D8F3FC020E03FEF4FE757E442
S1132340698D7A8D8B8D9C8D0E94653618164CF59F
S113235020E030E040E251E46D897E898F89988DD8
S11323600E946936DC01CB01BC01CD010E94873596
S1132370DC01CB019E8F8D8F0FC080E991E098A383
S11323808F8F8F8D98A10197F1F798A38F8F8D8DE3
S11323909E8D01979E8F8D8F8D8D9E8D892B69F7D4
S11323A03FC0698D7A8D8B8D9C8D0E948735DC01B1
S11323B0CB019E8F8D8F8D8D9E8D9AA389A389A12C
S11323C09AA10197F1F79AA389A32AC020E030E0EB
S11323D04FE753E46C857D858E859F850E94653625
S11323E01816ACF4688979898A899B890E94873593
S11323F0DC01CB019CA38BA38BA19CA19EA38DA3E9
S11324008DA19EA10197F1F79EA38DA30FC06C85AA
S11324107D858E859F850E948735DC01CB018C8B61
S11324208C898FA38FA18A95F1F78FA328D88F83E6
S113243089812FEF280FCE018C5B9F4F4F81622F34
S11324400E94D80989819A8101979A838983898115
S11324509A81181619060CF4E8CDCE018C5B9F4FB7
S1132460FC01808191819C01329522952F70232754
S11324703F702327CE018C5B9F4FFC013183208367
S1132480CE018C5B9F4FFC0180819181CB5BDF4F40
S11324900FB6F894DEBF0FBECDBFDF91CF91089584
S11324A00F931F93CF93DF93CDB7DEB727970FB664
S11324B0F894DEBF0FBECDBF69837A838B839C8380
S11324C04D832E830F8389819A81AB81BC818C32A9
S11324D09140A105B10508F46EC089819A81AB8150
S11324E0BC818130924CA140B10508F064C08D815B
S11324F0853008F460C08D81893008F05CC080ECC0
S113250090E020E2FC01208381EC90E028E1FC01D2
S113251020838F81882349F081EC90E021EC30E026
S1132520F90120812068FC01208382EC90E02D8158
S11325302550220FFC0120838E81853451F482ECD6
S113254090E022EC30E0F90120812062FC0120833C
S11325500CC08E818F3449F482EC90E022EC30E0A0
S1132560F90120812063FC01208304EC10E08981BF
S11325709A81AB81BC81880F991FAA1FBB1F880F4A
S1132580991FAA1FBB1F880F991FAA1FBB1F880F63
S1132590991FAA1FBB1F9C01AD0180E094E2A4EF28
S11325A0B0E0BC01CD010E94DB36DA01C90101971C
S11325B0F80191838083000027960FB6F894DEBF5C
S11325C00FBECDBFDF91CF911F910F910895CF938F
S11325D0DF931F92CDB7DEB78983000080EC90E0D3
S11325E0FC018081882F90E080729927892BB1F3B8
S11325F086EC90E02981FC01208300000F90DF919C
S1132600CF910895CF93DF9300D0CDB7DEB7898300
S11326107B836A838981DBDF80E090E00F900F90F9
S11326200F90DF91CF910895CF93DF931F921F9264
S1132630CDB7DEB79A8389830AC089819A81FC0168
S11326408081C5DF89819A8101969A8389838981F2
S11326509A81FC018081882381F700000F900F90FC
S1132660DF91CF910895CF93DF9300D01F92CDB720
S1132670DEB79C838B831A8219820E94A0218091E9
S1132680861390918713892B31F481EC99E0909310
S11326908713809386138B819C81892B91F12091E0
S11326A08413309185138B819C81820F931F833C0B
S11326B0994038F520918413309185138B819C8146
S11326C0280F391F809184139091851382179307E3
S11326D0C0F42091861330918713809184139091D4
S11326E08513820F931F9A838983209184133091D9
S11326F085138B819C81820F931F90938513809304
S113270084130E94AD2189819A810F900F900F90BC
S11327100F90DF91CF910895CF93DF931F921F9273
S1132720CDB7DEB79A83898300000F900F90DF91B5
S1132730CF910895CF93DF931F921F92CDB7DEB749
S11327409A83898389819A819C012D5F3F4F898176
S11327509A81FC013283218389819A812FEF3FEF93
S1132760FC013483238389819A819C012D5F3F4F2F
S113277089819A81FC013683258389819A819C0110
S11327802D5F3F4F89819A81FC013087278389819E
S11327909A81FC01108200000F900F90DF91CF917D
S11327A00895CF93DF931F921F92CDB7DEB79A831C
S11327B0898389819A81FC011186108600000F901B
S11327C00F90DF91CF910895CF93DF9300D000D085
S11327D0CDB7DEB79C838B837E836D838B819C8195
S11327E0FC01818192819A8389838D819E812981D3
S11327F03A81FC013383228389819A81FC012481FB
S113280035818D819E81FC013583248389819A8160
S1132810FC01848195812D813E81FC0133832283D7
S113282089819A812D813E81FC01358324838D81A8
S11328309E812B813C81FC01318720878B819C8187
S1132840FC01808121E0280F8B819C81FC01208385
S1132850000026960FB6F894DEBF0FBECDBFDF9101
S1132860CF910895CF93DF93CDB7DEB728970FB6F6
S1132870F894DEBF0FBECDBF9E838D8378876F83B0
S11328808F819885FC01808191819C838B838B81CE
S11328909C81019641F48D819E81FC018781908504
S11328A09A8389831AC08D819E8103969A83898332
S11328B007C089819A81FC01828193819A838983EB
S11328C089819A81FC0182819381FC01208131817B
S11328D08B819C818217930760F789819A81FC011F
S11328E0228133818F819885FC01338322838F81F8
S11328F09885FC01828193812F813885FC01358381
S113290024838F81988529813A81FC01358324832E
S113291089819A812F813885FC01338322838F81B9
S113292098852D813E81FC01318720878D819E8190
S1132930FC01808121E0280F8D819E81FC01208390
S1132940000028960FB6F894DEBF0FBECDBFDF910E
S1132950CF910895CF93DF9300D01F92CDB7DEB708
S11329609C838B838B819C81FC01808591859A83D8
S113297089838B819C81FC01828193812B813C81A1
S1132980F90124813581FC01358324838B819C8169
S1132990FC01848195812B813C81F9012281338161
S11329A0FC013383228389819A81FC012181328154
S11329B08B819C812817390751F48B819C81FC0100
S11329C02481358189819A81FC01328321838B8121
S11329D09C81FC011186108689819A81FC01808189
S11329E02FEF280F89819A81FC01208389819A81A4
S11329F0FC0180810F900F900F900F90DF91CF9189
S1132A000895CF93DF93CDB7DEB728970FB6F89428
S1132A10DEBF0FBECDBF9C838B837E836D835887BF
S1132A204F838D819E819A83898329818B819C81A7
S1132A30FC0120838B819C8101979C838B838981FA
S1132A409A81892F99279A83898329818B819C81F3
S1132A50FC0120838B819C8101979C838B838B81D8
S1132A609C81FC0110828B819C8101979C838B83C8
S1132A708B819C81FC0110828B819C8101979C83BA
S1132A808B838B819C8120E8FC0120838B819C813A
S1132A9001979C838B838B819C81FC0110828B81A9
S1132AA09C8101979C838B838B819C81FC01108288
S1132AB08B819C8101979C838B838B819C81FC01FE
S1132AC010828B819C8147979C838B838F8198850F
S1132AD09A83898329818B819C81FC0120838B814A
S1132AE09C8101979C838B8389819A81892F992763
S1132AF09A83898329818B819C81FC0120838B812A
S1132B009C8107979C838B838B819C8128960FB62D
S1132B10F894DEBF0FBECDBFDF91CF910895CF9360
S1132B20DF93CDB7DEB7FBD0A0918813B0918913A2
S1132B30CD91CDBFDD91DEBFFF91EF91DF91CF91BC
S1132B40BF91AF919F918F917F916F915F914F91C1
S1132B503F912F911F910F91FF90EF90DF90CF90B5
S1132B60BF90AF909F908F907F906F905F904F90A9
S1132B703F902F901F900F900CBE0F900BBE0F90A4
S1132B800FBE0F90089581E0DF91CF9108950F92C9
S1132B900FB6F8940F920BB60F920CB60F921F92C9
S1132BA011242F923F924F925F926F927F928F9255
S1132BB09F92AF92BF92CF92DF92EF92FF920F93C8
S1132BC01F932F933F934F935F936F937F938F93B1
S1132BD09F93AF93BF93CF93DF93EF93FF93A09112
S1132BE08813B09189130DB60D920EB60D920E9402
S1132BF05523A0918813B0918913CD91CDBFDD9158
S1132C00DEBFFF91EF91DF91CF91BF91AF919F9183
S1132C108F917F916F915F914F913F912F911F9170
S1132C200F91FF90EF90DF90CF90BF90AF909F9067
S1132C308F907F906F905F904F903F902F901F9058
S1132C400F900CBE0F900BBE0F900FBE0F90089507
S1132C5000000F920FB6F8940F920BB60F920CB6B9
S1132C600F921F9211242F923F924F925F926F9274
S1132C707F928F929F92AF92BF92CF92DF92EF9208
S1132C80FF920F931F932F933F934F935F936F93F1
S1132C907F938F939F93AF93BF93CF93DF93EF93E0
S1132CA0FF93A0918813B09189130DB60D920EB6BF
S1132CB00D920E946522882311F00E945523A09151
S1132CC08813B0918913CD91CDBFDD91DEBFFF9103
S1132CD0EF91DF91CF91BF91AF919F918F917F91B0
S1132CE06F915F914F913F912F911F910F91FF90A1
S1132CF0EF90DF90CF90BF90AF909F908F907F9098
S1132D006F905F904F903F902F901F900F900CBE4C
S1132D100F900BBE0F900FBE0F9008950000CF933D
S1132D20DF93CDB7DEB7A89580E090E0887099274F
S1132D30892B11F080EE01C080EC90E09770892B14
S1132D40982F88E10FB6F894A895809360000FBE81
S1132D50909360000000DF91CF9108957ADF189579
S1132D600000CF93DF9300D01F921F92CDB7DEB740
S1132D709C838B836D838B819C819A8389830FB61B
S1132D80F8940F9289819A81FC0180819181298133
S1132D903A81F901238D422F50E029813A81F901CA
S1132DA0248D222F30E0429FB001439F700D529F2B
S1132DB0700D11249B01280F391F89819A81FC0110
S1132DC03583248389819A81FC01128E89819A81B9
S1132DD0FC012081318189819A81FC013383228322
S1132DE089819A81FC012081318189819A81FC0148
S1132DF0838D882F90E0BC016150710989819A818B
S1132E00FC01848D482F50E0649FC001659F900DA4
S1132E10749F900D1124280F391F89819A81FC0118
S1132E203783268389819A812FEFFC01258F89813D
S1132E309A812FEFFC01268F8D81882379F4898173
S1132E409A81FC018085882389F089819A8108967A
S1132E500E94EA23882351F09ADE08C089819A816E
S1132E60089668DC89819A81419664DC0F900FBED4
S1132E7081E00F900F900F900F900F90DF91CF9102
S1132E8008950F931F93CF93DF93CDB7DEB72997A0
S1132E900FB6F894DEBF0FBECDBF8F836887498716
S1132EA08F81482F50E08885282F30E0429FC00151
S1132EB0439F900D529F900D11249A838983898199
S1132EC09A814F96D0DB9C838B838B819C81892B49
S1132ED099F08B819C819E838D838D819E814F96F9
S1132EE09E838D832B813C818D819E8189012985DF
S1132EF0AC0168858F810DD08B819C8129960FB69A
S1132F00F894DEBF0FBECDBFDF91CF911F910F911B
S1132F1008950F931F93CF93DF93CDB7DEB7279711
S1132F200FB6F894DEBF0FBECDBF89836A835C837E
S1132F304B832D831F830E838A81882341F48E81E2
S1132F409F812E813F81FC013183208307C08E81C4
S1132F509F812B813C81FC01318320838E819F8161
S1132F602981FC01238F8E819F812A81FC01248F7A
S1132F708E819F8161E0F5DE000027960FB6F894FC
S1132F80DEBF0FBECDBFDF91CF911F910F9108958A
S1132F90CF93DF93CDB7DEB72D970FB6F894DEBF8E
S1132FA00FBECDBF98878F837A8769875C874B87ED
S1132FB02D878F8198859B838A831C828A819B813C
S1132FC0FC01228D8A819B81FC01838D281718F0D6
S1132FD08D858230A9F58A819B81FC01868D8D8344
S1132FE08A819B81FC01828D8E8329853A858A8121
S1132FF09B814D85B901D8D08D818F3FB9F48A81E9
S11330009B81FC0181898823C1F08A819B8141963F
S11330100E94EA23882389F08B859C85892B69F09B
S11330208B859C8521E0FC01208307C08D818F5F07
S1133030282F8A819B81FC01268F81E0898301C02E
S1133040198289812D960FB6F894DEBF0FBECDBFCD
S1133050DF91CF910895CF93DF93CDB7DEB72D974E
S11330600FB6F894DEBF0FBECDBF998788877B87E4
S11330706A875D874C871982888599859B838A83B3
S11330800FB6F8940F928A819B81FC01828D8C8308
S11330908C818823F9F02A853B858A819B81B9013B
S11330A03ED18C812FEF280F8A819B81FC01228FD6
S11330B08A819B81FC018085882341F08A819B81E0
S11330C008960E94EA23882309F061DD0F900FBE61
S11330D081E061C08C859D85892B21F40F900FBE02
S11330E080E059C08981882331F4CE0105960E947D
S11330F0572481E089830F900FBE0E94A0210FB650
S1133100F8940F928A819B81FC01858D8F3F21F475
S11331108A819B81FC01158E8A819B81FC01868DAD
S11331208F3F21F48A819B81FC01168E0F900FBE84
S11331309E01245F3F4FCE010596B9010E9474247D
S11331408823E9F48A819B8199D1882391F02C8585
S11331503D858A819B814196B9010E94C8238A8159
S11331609B812ED10E94AD21882309F089CF0FDDE8
S113317087CF8A819B8124D10E94AD2181CF8A810E
S11331809B811ED10E94AD218A819B8177D18823A6
S113319009F476CF80E02D960FB6F894DEBF0FBE0B
S11331A0CDBFDF91CF910895CF93DF93CDB7DEB735
S11331B027970FB6F894DEBF0FBECDBF9C838B83D9
S11331C07E836D834F831A828B819C81FC01828D67
S11331D089838B819C81FC01848D882309F48EC0B2
S11331E08F818823D9F58B819C81FC01848D482FA4
S11331F050E08B819C81FC01828193812D813E81F1
S1133200B9010E9416378B819C81FC012281338194
S11332108B819C81FC01848D882F90E0280F391FBD
S11332208B819C81FC01338322838B819C81FC01F3
S1133230228133818B819C81FC01848195812817B3
S1133240390708F45BC08B819C81FC0120813181AA
S11332508B819C81FC013383228350C08B819C81B0
S1133260FC01848D482F50E08B819C81FC01868178
S113327097812D813E81B9010E9416378B819C81F3
S1133280FC01268137818B819C81FC01848D882FF0
S113329090E0919581959109280F391F8B819C812C
S11332A0FC01378326838B819C81FC012681378135
S11332B08B819C81FC018081918128173907A8F4B6
S11332C08B819C81FC01248135818B819C81FC0153
S11332D0848D882F90E0919581959109280F391F4D
S11332E08B819C81FC01378326838F81823031F46A
S11332F08981882319F0898181508983898121E01A
S1133300280F8B819C81FC01228F8A8127960FB61E
S1133310F894DEBF0FBECDBFDF91CF910895CF9358
S1133320DF9300D01F92CDB7DEB79A8389837C8365
S11333306B8389819A81FC01848D8823C9F18981F9
S11333409A81FC012681378189819A81FC01848DCF
S1133350882F90E0280F391F89819A81FC013783D7
S1133360268389819A81FC012681378189819A810A
S1133370FC01848195812817390750F089819A814D
S1133380FC012081318189819A81FC013783268364
S113339089819A81FC01848D482F50E089819A812A
S11333A0FC01268137818B819C81B9010E941637EB
S11333B000000F900F900F900F90DF91CF91089520
S11333C0CF93DF9300D01F92CDB7DEB79C838B835E
S11333D00FB6F8940F928B819C81FC01868D8983B2
S11333E012C08B819C81FC018189882381F08B81AF
S11333F09C8141960E94EA23882311F00E94E224D2
S1133400898181508983898118165CF301C0000089
S11334108B819C812FEFFC01268F0F900FBE0FB67E
S1133420F8940F928B819C81FC01858D8A8312C054
S11334308B819C81FC018085882381F08B819C8118
S113344008960E94EA23882311F00E94E2248A81CC
S113345081508A838A8118165CF301C000008B8135
S11334609C812FEFFC01258F0F900FBE00000F9061
S11334700F900F900F90DF91CF910895CF93DF932A
S113348000D0CDB7DEB79B838A830FB6F8940F9232
S11334908A819B81FC01828D882319F481E08983D0
S11334A001C019820F900FBE89810F900F900F9069
S11334B0DF91CF910895CF93DF9300D01F921F9295
S11334C0CDB7DEB79B838A837D836C8319822EC03C
S11334D08981882F90E0880F991F880F991F87533F
S11334E09C4EFC0180819181892BE9F48981882F8C
S11334F090E0880F991F880F991F87539C4E2C8149
S11335003D81FC01318320838981882F90E0880FDD
S1133510991F880F991F85539C4E2A813B81FC017A
S11335203183208306C089818F5F898389818530B7
S113353078F200000F900F900F900F900F90DF9192
S1133540CF9108950F93CF93DF93CDB7DEB728972C
S11335500FB6F894DEBF0FBECDBF9D838C837F83EF
S11335606E8348878885813019F481E08B8301C09C
S11335701B828E819F81892B21F481E090E09F83BF
S11335808E838C819D819C01205F3F4F8C819D8126
S11335908217930760F48C819D8101969D838C83AF
S11335A08C819D810F965FD89A83898302C01A8289
S11335B0198289819A81892B69F089819A81BC0158
S11335C0615F7F4F2E813F814C815D8189819A812A
S11335D00B81DFD389819A8128960FB6F894DEBFD8
S11335E00FBECDBFDF91CF910F910895CF93DF939D
S11335F000D000D0CDB7DEB79E838D838D819E81B0
S11336009C838B838B819C81FC01248135818B81FC
S11336109C81FC0180819181820F931F9A8389830D
S11336208B819C81FC018281938129813A81A9014A
S1133630481B590BCA019A83898389819A8101970E
S11336409A8389838B819C81FC01248135818981C2
S11336509A818217930768F08B819C81FC01848195
S1133660958129813A81A901481B590BCA019A8382
S1133670898389819A8126960FB6F894DEBF0FBE9E
S1133680CDBFDF91CF910895CF93DF9300D000D0C9
S1133690CDB7DEB79E838D838D819E819A83898386
S11336A089819A8133D39C838B838B819C812696D9
S11336B00FB6F894DEBF0FBECDBFDF91CF91089552
S11336C0CF92DF92EF92FF920F931F93CF93DF93EA
S11336D0CDB7DEB761970FB6F894DEBF0FBECDBF8E
S11336E09B878A877D876C875F874E87398B288B7A
S11336F08A859B859C838B838E859F859A8389830A
S11337008B819C81FC018685882F90E081709927AC
S1133710892B29F089819A8102969A8389838B81E6
S11337209C8164DF9E838D83E981FA812D813E81B2
S11337304E855F856C857D858B819C818F0141D011
S113374098878F838F819885892B51F18B819C81F8
S1133750DDD29C018B819C81FC0186819781281795
S11337603907F0F019868B819C81FC018085918555
S1133770892BB1F08B819C81FC01808591852889FE
S113378039896901E12CF12C00E020E030E0A90145
S113379060E00E949E278B819C81FC01118610862B
S11337A08F81988561960FB6F894DEBF0FBECDBFAA
S11337B0DF91CF911F910F91FF90EF90DF90CF9009
S11337C008950F931F93CF93DF93CDB7DEB72D9753
S11337D00FB6F894DEBF0FBECDBF9D838C837F836D
S11337E06E83598748873B872A871D870C878A857C
S11337F09B85892B11F419822BC08C819D81FC013E
S11338008685882F90E081709927892B69F481E05F
S11338108983288539858A859B852817390708F483
S1133820C9019987888714C02A853B858C859D8525
S11338302817390760F081E089839E01285F3F4F94
S11338408C819D8142E050E0B90142D101C01982CE
S11338508981882359F0488559852E813F818C813F
S11338609D81B90135D19B838A8302C01B821A8250
S11338708A819B812D960FB6F894DEBF0FBECDBF13
S1133880DF91CF911F910F910895CF92DF92EF9224
S1133890FF920F931F93CF93DF93CDB7DEB760975B
S11338A00FB6F894DEBF0FBECDBF9A8789877C8799
S11338B06B875E874D87388B2F8789859A85988794
S11338C08F831A8219828F819885FC018685882FBF
S11338D090E081709927892B29F082E090E09E8303
S11338E08D8302C01E821D828F859889892B09F4DD
S11338F03EC00FB6F8940F928F81988507D29C83AF
S11339008B832B813C818D819E818217930768F084
S113391060E080E090E00E94F6280E9454259C011B
S11339208F819885FC01318720870F900FBE2B81F2
S11339303C818D819E8182179307F0F08F85988951
S11339406C01E12CF12C00E010E0980140E050E023
S1133950BA0180E00E9467258F819885FC01118659
S113396010868F819885D2D19C838B8305C08F81EB
S11339709885CCD19C838B832B813C818D819E81C6
S11339808217930770F5ED81FE812B813C814D8573
S11339905E856B857C858F8198858F0133D09A8372
S11339A0898389819A81892BE1F0CAD48F81988592
S11339B0FC0182859385892B99F08F819885FC0180
S11339C082859385E12CF12C00E020E030E0A90110
S11339D060E00E9460268F819885FC011386128620
S11339E0BCD489819A8160960FB6F894DEBF0FBE6D
S11339F0CDBFDF91CF911F910F91FF90EF90DF909A
S1133A00CF9008950F931F93CF93DF93CDB7DEB775
S1133A1062970FB6F894DEBF0FBECDBF9A87898731
S1133A207C876B875E874D87388B2F871A8B098B32
S1133A3089899A89892B81F189859A85FC018081FC
S1133A4091819C838B832F85388949895A89BE014A
S1133A50695F7F4F89859A85C2D08F8198859A83C3
S1133A6089832F85388989899A89A901481B590B2B
S1133A70CA01988B8F8729813A818D859E8582170B
S1133A80930770F489859A852B813C81FC013183ED
S1133A9020831A82198204C08D859E859A83898326
S1133AA02F85388949815A816B857C8589859A85DA
S1133AB096D09E838D838D819E8162960FB6F894F5
S1133AC0DEBF0FBECDBFDF91CF911F910F9108953F
S1133AD0CF93DF93CDB7DEB72A970FB6F894DEBF46
S1133AE00FBECDBF9E838D8378876F835A874987A6
S1133AF08D819E81FC01828193819A8389838D814A
S1133B009E81FC012481358189819A81A901481B08
S1133B10590BCA0129853A852817390708F4C901C0
S1133B209C838B838D819E81FC01248535858981CD
S1133B309A81820F931F4B815C812F813885B90153
S1133B400E94163729853A858B819C8182179307B9
S1133B50A8F429853A858B819C81A901481B590BBE
S1133B602F8138858B819C81280F391F8D819E81FF
S1133B70FC0184859585B9010E94163729813A8113
S1133B8089859A85820F931F9A8389838D819E816B
S1133B90FC012481358189819A818217930768F019
S1133BA08D819E81FC018481958129813A81A901BD
S1133BB0481B590BCA019A8389838D819E8129816F
S1133BC03A81FC013383228389859A852A960FB62C
S1133BD0F894DEBF0FBECDBFDF91CF910895CF9390
S1133BE0DF93CDB7DEB72E970FB6F894DEBF0FBEC6
S1133BF0CDBF98878F837A8769875C874B873E8799
S1133C002D872D853E858B859C852817390708F4DB
S1133C10C9019C838B838B819C81892B09F46BC0A4
S1133C208F819885FC01808191819A8389838F811A
S1133C309885FC012481358189819A81A901481BD9
S1133C40590BCA012B813C812817390708F4C90193
S1133C509E838D838F819885FC0124853585898198
S1133C609A81280F391F4D815E8189859A85B90112
S1133C700E9416372B813C818D819E818217930788
S1133C80A0F42B813C818D819E81A901481B590B95
S1133C908F819885FC016485758529853A858D8198
S1133CA09E81820F931F0E94163729813A818B814E
S1133CB09C81820F931F9A8389838F819885FC014D
S1133CC02481358189819A818217930768F08F81D5
S1133CD09885FC018481958129813A81A901481B39
S1133CE0590BCA019A8389838F81988529813A81E6
S1133CF0FC01318320838B819C812E960FB6F8942E
S1133D00DEBF0FBECDBFDF91CF910895CF93DF9378
S1133D1000D01F92CDB7DEB79C838B838B819C81AF
S1133D20FC01248135818B819C81FC0182819381FA
S1133D30820F931F9A8389838B819C81FC018081EC
S1133D40918129813A81A901481B590BCA019A839F
S1133D5089838B819C81FC012481358189819A81AD
S1133D608217930768F08B819C81FC018481958183
S1133D7029813A81A901481B590BCA019A83898375
S1133D8089819A810F900F900F900F90DF91CF91BE
S1133D9008950F93CF93DF93CDB7DEB729970FB66E
S1133DA0F894DEBF0FBECDBF9A8389837C836B8377
S1133DB05E834D8338872F83098789819A814FE0F9
S1133DC050E060E070E00E941F3789819A812B8166
S1133DD03C81FC013587248789819A812D813E812C
S1133DE0FC013583248389819A812F813885FC01E4
S1133DF03783268389819A812985FC0126870000DF
S1133E0029960FB6F894DEBF0FBECDBFDF91CF91D8
S1133E100F9108958F929F92AF92BF92CF92DF92AB
S1133E20EF92FF920F931F93CF93DF93CDB7DEB73B
S1133E3060970FB6F894DEBF0FBECDBF9F838E830D
S1133E40798768875B874A873D872C870E87F88A3E
S1133E50EF868A859B850E9433139D838C838C8196
S1133E609D81892BB9F086E290E00E9433139A83F6
S1133E70898389819A81892B41F089819A812C8156
S1133E803D81FC01308F278B07C08C819D810E946E
S1133E908C1302C01A82198289819A81892BF9F0C4
S1133EA08A859B85CC01A0E0B0E009811A814F8509
S1133EB058892C853D8568857985EE81FF81812C23
S1133EC0912C58016A01EE8489019C01AD01CF0156
S1133ED01CD089819A81EAD081E08B8302C08FEF64
S1133EE08B838B8160960FB6F894DEBF0FBECDBF77
S1133EF0DF91CF911F910F91FF90EF90DF90CF90C2
S1133F00BF90AF909F908F9008958F929F92AF92A1
S1133F10BF92CF92DF92EF920F931F93CF93DF93D1
S1133F20CDB7DEB764970FB6F894DEBF0FBECDBF32
S1133F309D838C837F836E83288739874A875B8739
S1133F401D870C87EE86D88ACF86BA8AA98A9C8A6E
S1133F508B8A89899A89FC012789308D888599857E
S1133F600197820F931F9B838A838E819F81892B64
S1133F7069F1198221C08981882F90E02981222F3B
S1133F8030E04E815F81240F351FF901408129897A
S1133F903A89820F931F4996FC0140838981882FB7
S1133FA090E02E813F81820F931FFC018081882342
S1133FB039F089818F5F898389818830E0F201C07B
S1133FC0000089899A89FC0110A204C089899A8910
S1133FD0FC01118E8E85882309F01E8689899A89B1
S1133FE02E85FC01268B89899A8902960E94D11319
S1133FF089899A890C960E94D11389899A89298979
S11340003A89FC01318720878E85882F90E021E052
S113401030E0281B390B89899A89FC01358724876C
S113402089899A8929893A89FC01338B228B898968
S11340309A89819644E050E060E070E00E941F3766
S113404089899A89859641E050E060E070E00E9499
S11340501F374C855D852C813D818A819B81B90107
S11340600E9401159C0189899A89FC01318320836E
S11340708F859889892B39F08F85988929893A8980
S1134080FC0131832083000064960FB6F894DEBFF0
S11340900FBECDBFDF91CF911F910F91EF90DF90B5
S11340A0CF90BF90AF909F908F900895CF93DF9360
S11340B01F921F92CDB7DEB79A8389830FB6F89407
S11340C00F928091B2138F5F8093B2138091881303
S11340D090918913892B61F489819A819093891332
S11340E0809388138091B2138130C1F476D416C0C2
S11340F08091B613882391F4809188139091891349
S1134100FC01268989819A81FC018689821730F015
S113411089819A8190938913809388138091BB132A
S11341208F5F8093BB1389819A81FC01968980916A
S1134130B513891730F489819A81FC0186898093AB
S1134140B51389819A81AC014E5F5F4F89819A8151
S1134150FC018689282F30E0C901880F991F880F38
S1134160991F880F991F820F931F86579C4EBA017F
S11341700E94E4130F900FBE8091B613882371F050
S11341808091881390918913FC01268989819A81F1
S1134190FC018689281710F40E94C71500000F90AF
S11341A00F90DF91CF910895CF93DF93CDB7DEB712
S11341B02A970FB6F894DEBF0FBECDBF98878F83C2
S11341C07A8769871982BCD08091B3139091B41314
S11341D09B838A838F819885FC0120813181898525
S11341E09A85820F931F9D838C838F819885FC0110
S11341F0208131818A819B8182179307A0F48F816A
S11342009885FC01208131818C819D8182179307DF
S1134210E8F42C813D818A819B8182179307B0F455
S113422081E0898313C08F819885FC0120813181CD
S11342308C819D818217930738F02C813D818A817E
S11342409B818217930710F481E089838F8198857D
S11342502C813D81FC01318320838981882351F0A5
S11342602C813D818A819B81A901481B590BCA017C
S113427060E0FBD772D08E838E81882311F40E9474
S1134280C71589812A960FB6F894DEBF0FBECDBF3D
S1134290DF91CF910895CF93DF9300D0CDB7DEB7F0
S11342A09B838A8319828A819B81892B39F048D028
S11342B08A819B8160E0D9D750D089838981882302
S11342C011F40E94C71500000F900F900F90DF911A
S11342D0CF910895EF92FF920F93CF93DF931F92A4
S11342E0CDB7DEB70F2EFEEBEF2EF3E1FF2EF02D50
S11342F000E020E030E04CE251E06EE978E082E753
S113430090E088DD89838981813081F4F8948FEF8E
S11343109FEF9093BD138093BC1381E08093B613F9
S11343201092B4131092B3130E948F158091FB0660
S113433000000F90DF91CF910F91FF90EF900895BF
S1134340CF93DF93CDB7DEB78091C0138F5F809397
S1134350C0130000DF91CF910895CF93DF9300D075
S11343601F921F92CDB7DEB71A8219821B820FB635
S1134370F8940F928091C01381508093C013809160
S1134380C013882309F07EC08091B213882309F4F6
S113439079C049C08091AE139091AF13FC0186811E
S11343A097819A83898389819A810C960E94AA14A1
S11343B089819A8102960E94AA1489819A81FC01BA
S11343C096898091B513891730F489819A81FC010B
S11343D086898093B51389819A81AC014E5F5F4FC2
S11343E089819A81FC018689282F30E0C901880FD0
S11343F0991F880F991F880F991F820F931F865743
S11344009C4EBA010E94E41389819A81FC01268999
S11344108091881390918913FC018689281718F0DC
S113442081E08093B9138091A913882309F0B2CF56
S113443089819A81892B09F012D38091B7139091C5
S1134440B8139D838C838C819D81892B99F03DD0F9
S1134450882319F081E08093B9138C819D810197A1
S11344609D838C838C819D81892B89F71092B8134D
S11344701092B7138091B913882321F081E08B83C4
S11344800E94C7150F900FBE8B810F900F900F9055
S11344900F900F90DF91CF910895CF93DF931F92E8
S11344A01F92CDB7DEB70FB6F8940F928091B31375
S11344B09091B4139A8389830F900FBE89819A8156
S11344C00F900F90DF91CF910895CF93DF93CDB7E5
S11344D0DEB729970FB6F894DEBF0FBECDBF1982A1
S11344E08091C013882309F0CDC08091B3139091BB
S11344F0B41301969B838A838A819B819093B4131E
S11345008093B3138A819B81892BD1F48091A51365
S11345109091A6139D838C838091A7139091A813E7
S11345209093A6138093A5138C819D819093A813D7
S11345308093A7138091BA138F5F8093BA138FD29D
S11345408091BC139091BD132A813B8128173907B0
S113455008F478C08091A5139091A613FC01808182
S1134560882339F48FEF9FEF9093BD138093BC138E
S113457069C08091A5139091A613FC018581968151
S1134580FC01868197819F838E838E819F81FC01AC
S113459082819381998788872A813B81888599853F
S11345A02817390738F4888599859093BD1380932B
S11345B0BC1348C08E819F8102960E94AA148E81EA
S11345C09F81FC0184899589892B29F08E819F81A3
S11345D00C960E94AA148E819F81FC019689809179
S11345E0B513891730F48E819F81FC0186898093ED
S11345F0B5138E819F81AC014E5F5F4F8E819F8189
S1134600FC018689282F30E0C901880F991F880F83
S1134610991F880F991F820F931F86579C4EBA01CA
S11346200E94E4138E819F81FC0126898091881366
S113463090918913FC018689281708F48BCF81E0B7
S1134640898388CF8091881390918913FC0186898E
S1134650282F30E0C901880F991F880F991F880FF0
S1134660991F820F931F86579C4EFC0180818230D4
S113467010F081E089838091B913882361F081E08F
S1134680898309C08091B7139091B81301969093D0
S1134690B8138093B713898129960FB6F894DEBFB7
S11346A00FBECDBFDF91CF910895CF93DF9300D09C
S11346B0CDB7DEB78091C013882321F081E08093C9
S11346C0B9135FC01092B9138091B513898303C0E5
S11346D08981815089838981282F30E0C901880F1D
S11346E0991F880F991F880F991F820F931F865750
S11346F09C4EFC018081882359F38981282F30E066
S1134700C901880F991F880F991F880F991F820F5D
S1134710931F86579C4E9B838A838A819B81FC01CD
S113472081819281FC01228133818A819B81FC01F8
S1134730328321838A819B81FC01218132818A8198
S11347409B8103962817390769F48A819B81FC01B0
S113475081819281FC01228133818A819B81FC01C8
S1134760328321838A819B81FC0181819281FC01B6
S1134770868197819093891380938813898180938C
S1134780B51300000F900F900F90DF91CF91089513
S1134790CF93DF9300D01F92CDB7DEB79A8389837E
S11347A07C836B8380918813909189139C01245F8F
S11347B03F4F89819A81B9010E9432148B819C8177
S11347C061E053D500000F900F900F900F90DF9190
S11347D0CF910895CF93DF9300D01F921F92CDB74E
S11347E0DEB79D838C838C819D81FC0185819681BC
S11347F0FC01868197819B838A838A819B810C96A5
S11348000E94AA148091C013882369F58A819B8130
S113481002960E94AA148A819B81FC019689809148
S1134820B513891730F48A819B81FC0186898093B2
S1134830B5138A819B81AC014E5F5F4F8A819B8156
S1134840FC018689282F30E0C901880F991F880F41
S1134850991F880F991F820F931F86579C4EBA0188
S11348600E94E41308C08A819B810C96BC0189EAEA
S113487093E10E94E4138A819B81FC012689809143
S1134880881390918913FC018689821730F481E0A2
S1134890898381E08093B91301C0198289810F90C3
S11348A00F900F900F900F90DF91CF910895CF93B9
S11348B0DF931F921F92CDB7DEB79A83898320912D
S11348C0BA1389819A81FC0120832091B31330911A
S11348D0B41389819A81FC013283218300000F90F3
S11348E00F90DF91CF910895CF93DF93CDB7DEB7CB
S11348F029970FB6F894DEBF0FBECDBF9F838E837A
S1134900798768870FB6F8940F928091B3139091CA
S1134910B4139B838A838E819F81FC018181928160
S11349202A813B81A901481B590BCA019D838C83B1
S11349308E819F81FC0190818091BA13981791F028
S11349408E819F81FC01218132818A819B81821722
S1134950930740F081E0898388859985FC01118261
S1134960108224C088859985FC01208131818C8145
S11349709D818217930798F488859985FC0120818D
S113498031818C819D81281B390B88859985FC0197
S1134990318320838E819F818ADF198207C08885B5
S11349A09985FC011182108281E089830F900FBEEA
S11349B0898129960FB6F894DEBF0FBECDBFDF9173
S11349C0CF910895CF93DF93CDB7DEB781E0809385
S11349D0B9130000DF91CF910895CF93DF931F9215
S11349E0CDB7DEB7198213C08981282F30E0C90101
S11349F0880F991F880F991F880F991F820F931F83
S1134A0086579C4E0E949A1389818F5F898389817E
S1134A10882351F383E993E10E949A138CE993E18B
S1134A200E949A1389EA93E10E949A1383E993E11D
S1134A309093A6138093A5138CE993E19093A81304
S1134A408093A71300000F90DF91CF910895CF9327
S1134A50DF93CDB7DEB70000DF91CF910895CF93F8
S1134A60DF93CDB7DEB78091A5139091A613FC0117
S1134A708081882339F48FEF9FEF9093BD13809347
S1134A80BC130EC08091A5139091A613FC018581DF
S1134A909681FC01808191819093BD138093BC1316
S1134AA00000DF91CF910895CF93DF931F921F925F
S1134AB0CDB7DEB780918813909189139A83898347
S1134AC089819A810F900F90DF91CF910895CF92B1
S1134AD0DF92EF92FF920F931F93CF93DF93CDB7A3
S1134AE0DEB72E970FB6F894DEBF0FBECDBF8A8314
S1134AF04B835C836D837E830F83188729873A8772
S1134B00FC86EB86DE86CD860FB6F8940F92209154
S1134B108813309189138A81882F90E0820F931F24
S1134B208596DC018C91823009F447C0609188132A
S1134B30709189138A81E82FF0E08A81882F90E0B0
S1134B40880F991F880F991F860F971F8196DC0184
S1134B502D913D914D915C918B819C81AD81BE8164
S1134B6080959095A095B09582239323A423B52393
S1134B709F01220F331F220F331F260F371F2F5D74
S1134B803F4FF90180839183A283B38320918813DB
S1134B90309189138A81882F90E0820F931F859624
S1134BA021E0DC012C938D859E85892B31F08D8548
S1134BB09E8561E05AD30E94C7150F900FBE0FB6B1
S1134BC0F8940F928B859C85892BD1F020918813C2
S1134BD0309189138A81882F90E0880F991F880F5C
S1134BE0991F820F931F8196FC0180819181A2817C
S1134BF0B3812B853C85F90180839183A283B383A0
S1134C0020918813309189138A81882F90E0820F34
S1134C10931F8596DC018C91823011F0198232C089
S1134C2060918813709189138A81E82FF0E08A815A
S1134C30882F90E0880F991F880F991F860F971F60
S1134C408196DC012D913D914D915C918F819885E8
S1134C50A985BA8580959095A095B09582239323D4
S1134C60A423B5239F01220F331F220F331F260FC6
S1134C70371F2F5D3F4FF90180839183A283B38354
S1134C8081E0898320918813309189138A81882F48
S1134C9090E0820F931F8596DC011C920F900FBE4B
S1134CA089812E960FB6F894DEBF0FBECDBFDF917B
S1134CB0CF911F910F91FF90EF90DF90CF900895C7
S1134CC0EF92FF920F93CF93DF93CDB7DEB72E977A
S1134CD00FB6F894DEBF0FBECDBF9E838D836F8366
S1134CE0288739874A875B870C87FE86ED8681E0B3
S1134CF089838D819E819B838A830FB6F8940F925A
S1134D008D859E85892BC1F08F81882F90E02A8123
S1134D103B81880F991F880F991F820F931F8196DB
S1134D20FC0180819181A281B3812D853E85F901A9
S1134D3080839183A283B3838F81882F90E02A811B
S1134D403B81820F931F8596FC0180818C838F8128
S1134D50882F90E02A813B81820F931F859622E061
S1134D60FC0120838C85882F90E08230910509F422
S1134D703EC08330910534F4009709F492C0019742
S1134D8049F090C08330910509F456C0049709F4A2
S1134D906BC088C08F81682F70E08F81882F90E06E
S1134DA02A813B81880F991F880F991F820F931FB7
S1134DB08196FC01208131814281538188859985C6
S1134DC0AA85BB85822B932BA42BB52B4A815B81AF
S1134DD09B01220F331F220F331F240F351F2F5D1A
S1134DE03F4FF90180839183A283B3835BC08F819A
S1134DF0282F30E04A815B81C901880F991F880FF1
S1134E00991F840F951F8196FC0180819181A28155
S1134E10B3810196A11DB11D4A815B81220F331F0D
S1134E20220F331F240F351F2F5D3F4FF90180835D
S1134E309183A283B38336C08F81882F90E02A8127
S1134E403B81880F991F880F991F820F931F9C0124
S1134E502F5D3F4F88859985AA85BB85F90180839D
S1134E609183A283B3831EC08C818230C1F08F8171
S1134E70882F90E02A813B81880F991F880F991F02
S1134E80820F931F9C012F5D3F4F88859985AA85CA
S1134E90BB85F90180839183A283B38303C0198204
S1134EA001C000008C818130D1F58A819B810296FA
S1134EB00E94AA148A819B81FC0196898091B51372
S1134EC0891730F48A819B81FC0186898093B5130C
S1134ED08A819B81AC014E5F5F4F8A819B81FC017B
S1134EE08689282F30E0C901880F991F880F991FE0
S1134EF0880F991F820F931F86579C4EBA010E94F8
S1134F00E4138A819B81FC01268980918813909106
S1134F108913FC018689821710F40E94C7150F902B
S1134F200FBE89812E960FB6F894DEBF0FBECDBF9B
S1134F30DF91CF910F91FF90EF900895CF92DF9280
S1134F40EF92FF920F93CF93DF93CDB7DEB76197C4
S1134F500FB6F894DEBF0FBECDBF9F838E836887E4
S1134F6029873A874B875C870D87FF86EE86D98A27
S1134F70C88A81E089838E819F819B838A831C8276
S1134F808E859F85892BC1F08885882F90E02A81A2
S1134F903B81880F991F880F991F820F931F819659
S1134FA0FC0180819181A281B3812E853F85F90125
S1134FB080839183A283B3838885882F90E02A819C
S1134FC03B81820F931F8596FC0180818D838885A8
S1134FD0882F90E02A813B81820F931F859622E0DF
S1134FE0FC0120838D85882F90E08230910509F49F
S1134FF03EC08330910534F4009709F492C00197C0
S113500049F090C08330910509F456C0049709F41F
S11350106BC088C08885682F70E08885882F90E0F1
S11350202A813B81880F991F880F991F820F931F34
S11350308196FC01208131814281538189859A8541
S1135040AB85BC85822B932BA42BB52B4A815B812A
S11350509B01220F331F220F331F240F351F2F5D97
S11350603F4FF90180839183A283B3835BC088851A
S1135070282F30E04A815B81C901880F991F880F6E
S1135080991F840F951F8196FC0180819181A281D3
S1135090B3810196A11DB11D4A815B81220F331F8B
S11350A0220F331F240F351F2F5D3F4FF9018083DB
S11350B09183A283B38336C08885882F90E02A81A8
S11350C03B81880F991F880F991F820F931F9C01A2
S11350D02F5D3F4F89859A85AB85BC85F901808317
S11350E09183A283B3831EC08D818230C1F08885F1
S11350F0882F90E02A813B81880F991F880F991F80
S1135100820F931F9C012F5D3F4F89859A85AB8544
S1135110BC85F90180839183A283B38303C0198280
S113512001C000008D81813009F051C08091C0130D
S1135130882369F58A819B8102960E94AA148A8138
S11351409B81FC0196898091B513891730F48A817B
S11351509B81FC0186898093B5138A819B81AC0174
S11351604E5F5F4F8A819B81FC018689282F30E046
S1135170C901880F991F880F991F880F991F820FE3
S1135180931F86579C4EBA010E94E41308C08A817B
S11351909B810C96BC0189EA93E10E94E4138A8105
S11351A09B81FC0126898091881390918913FC01CD
S11351B08689821760F488899989892B29F08889DE
S11351C0998921E0FC01208381E08093B9138981CE
S11351D061960FB6F894DEBF0FBECDBFDF91CF91BD
S11351E00F91FF90EF90DF90CF900895CF93DF93CE
S11351F000D000D0CDB7DEB79D838C836E838C81C5
S11352009D81892B29F4809188139091891302C080
S11352108C819D819B838A830FB6F8940F928E8133
S1135220882F90E02A813B81820F931F8596FC0191
S11352308081823069F48E81882F90E02A813B81BD
S1135240820F931F8596FC01108281E0898301C03F
S113525019820F900FBE898126960FB6F894DEBF8F
S11352600FBECDBFDF91CF910895CF93DF93CDB71C
S1135270DEB727970FB6F894DEBF0FBECDBF9E836F
S11352808D836F838091B3139091B4139A83898330
S1135290809188139091891302960E94AA142981FF
S11352A03A818D819E81820F931F9C838B83809191
S11352B08813909189132B813C81FC0133832283D1
S11352C02B813C8189819A812817390778F4809150
S11352D08813909189139C012E5F3F4F8091A713EF
S11352E09091A813B9010E9432141DC080918813B3
S11352F0909189139C012E5F3F4F8091A51390914B
S1135300A613B9010E9432148091BC139091BD136D
S11353102B813C812817390730F48B819C81909331
S1135320BD138093BC13000027960FB6F894DEBF1C
S11353300FBECDBFDF91CF910895CF93DF93CDB74B
S1135340DEB76C970FB6F894DEBF0FBECDBF9C8F4F
S11353508B8F8B8D9C8D9A8389838091C1139091BF
S1135360C2130197D1F71092C2131092C11389810D
S11353709A819E838D831F8289819A8199878887E8
S113538081E08A8789819A819C878B8781E090E07C
S11353909E878D8789819A81FC01838194810A97F4
S11353A0988B8F8789819A81FC01858196819A8B5C
S11353B0898B89819A819C8B8B8B81E090E09E8B79
S11353C08D8B89819A81FC01838194810A96988FBF
S11353D08F8B89819A81FC01858196819A8F898F2F
S11353E0D4D79C838B838B819C81FC0180819181A8
S11353F0863E910508F0B1CF8B819C810296FC0119
S1135400808191818035910508F0A7CF8B819C81A3
S1135410FC018081918183379105D8F483EA98E077
S1135420892F8F9383EA98E08F930E9426370F90F9
S11354300F908D819E81AF81BC018A2F46D02B8530
S11354403C854D855E856F85788989899A8966D082
S113545084CF8B819C81FC0180819181843791056B
S113546008F47BCF88EA98E0892F8F9388EA98E044
S11354708F930E9426370F900F9088859985AA856F
S1135480BC018A2F22D02B893C894D895E896F8982
S1135490788D898D9A8D42D060CFCF93DF9300D0E1
S11354A01F92CDB7DEB769837A838B839C832B816C
S11354B03C8189819A81B901C0D400000F900F907A
S11354C00F900F90DF91CF910895CF93DF9300D089
S11354D01F921F92CDB7DEB76B837C838D838B8144
S11354E09C819A8389838D81882321F489819A817F
S11354F036D50BC08D81813021F489819A8103D501
S113550004C08EEA98E00E94141300000F900F90DC
S11355100F900F900F90DF91CF910895CF93DF9369
S1135520CDB7DEB72C970FB6F894DEBF0FBECDBF54
S11355302D833E834F83588769877A878B879C871F
S11355401A8219821C821B822BC02D813E814B81C1
S11355505C8165E1649FC001659F900D1124820FF9
S1135560931F4D96FC01208131818F8198852817E6
S1135570390789F42D813E818B819C81AC014F5F79
S11355805F4F65E1649FC001659F900D1124820FF8
S1135590931F9A8389838B819C8101969C838B833F
S11355A08B819C8103978CF289819A81892B51F09C
S11355B089859A85AB85BC8529813A81AC01BD0179
S11355C0C901F9D400002C960FB6F894DEBF0FBEC3
S11355D0CDBFDF91CF910895CF93DF93CDB7DEB7E1
S11355E0C458D1090FB6F894DEBF0FBECDBF9E01DB
S11355F021583F4FD9018D939C93CE018F579F4FD4
S1135600FC0171836083CE018F579F4FDC018D9124
S11356109C91992344F0CE018F579F4FFC018081C8
S113562091810497C4F0CE018F579F4FDC011196EE
S11356302C912F93FC0180818F938CEC98E0892F1F
S11356408F938CEC98E08F930E9426370F900F90E5
S11356500F900F9048C288E0E7EEF8E0DE011D9657
S113566001900D928A95E1F71A8219821C821B829D
S11356703BC08B819C81880F991F9E012F5F3F4FF8
S1135680820F931F0C96DC012D913C91CE018F5714
S11356909F4FFC01808191812817390701F189818D
S11356A09A819C012F5F3F4F3A8329832B813C8150
S11356B0220F331FAE014F5F5F4F240F351F245F4E
S11356C03F4FD9012D913C91880F991FAE014F5F37
S11356D05F4F840F951F4496FC01318320838B8197
S11356E09C8101969C838B838B819C8104970CF213
S11356F0CE0181589F4FDC018D919C919E012F57C3
S11357003F4FF90120813181DC0119963C932E939E
S113571018971E821D8226C08D819E81880F991F35
S11357209E012F5F3F4F820F931F4496FC012081FF
S11357303181CE0181589F4FDC014D915C916D8187
S11357407E81E5E1E69FC001E79F900D1124840F5F
S1135750951F4D96FC01318320838D819E81019696
S11357609E838D838D819E810397B4F2CE018158EF
S11357709F4FDC018D919C919C8F8B8FCE01815822
S11357809F4FFC018081918145969E8F8D8FCE0124
S113579081589F4FDC018D919C918A9698A38F8F9D
S11357A0CE0181589F4FFC0180819181CF969AA3AD
S11357B089A30E94F234A82FCB018BA39CA3ADA391
S11357C00E94CA34A82FCB018EA39FA3A8A70E942E
S11357D00635A82FCB0189A79AA7ABA70E94DE3470
S11357E0A82FCB018CA79DA7AEA784E690E09A874B
S11357F0898786EE90E098AB8FA789859A859AABC6
S113580089AB89859A859CAB8BAB86EE90E09EAB89
S11358108DAB18AE1FAA89859A859AAF89AF898501
S11358209A859CAF8BAF1EAE1DAE29853A85CE01FD
S1135830CF96DC012D933C93CE018F5B9F4FFC01EF
S113584011821082CE018D5B9F4F26EE30E0DC0189
S11358502D933C93CE018B5B9F4F29853A85FC01A8
S113586031832083CE01895B9F4F29853A85DC01F2
S11358702D933C93CE01875B9F4F26EE30E0FC01D5
S113588031832083CE01855B9F4FDC011D921C92E6
S1135890CE01835B9F4F29853A85FC0131832083A8
S11358A0CE01815B9F4FDC011D921C92CE018F5A69
S11358B09F4F29853A85FC0131832083CE018D5A7F
S11358C09F4F29853A85DC012D933C93CE018B5A59
S11358D09F4FFC0111821082CE01895A9F4F26EE00
S11358E030E0DC012D933C93CE01875A9F4F2985EC
S11358F03A85FC0131832083CE01855A9F4F298547
S11359003A85DC012D933C93CE01835A9F4F26EEBA
S113591030E0FC0131832083CE01815A9F4F2985D9
S11359203A85DC012D933C93CE018F599F4F26EE8F
S113593030E0FC0131832083CE018D599F4FDC017F
S11359401D921C92CE018B599F4F29853A85FC01EB
S113595031832083CE0189599F4F29853A85DC0103
S11359602D933C93CE0187599F4FFC0111821082E5
S1135970CE0185599F4F26EE30E0DC012D933C93F8
S1135980CE0183599F4F29853A85FC0131832083B9
S1135990CE0181599F4F20E1EFEEF8E0DC01019048
S11359A00D922A95E1F718861F8298C08F819885F9
S11359B0880F991F9E012F5F3F4F820F931F4A96B6
S11359C0DC018D919C91FC01808591859C878B875E
S11359D08F819885880F991F9E012F5F3F4F820FFB
S11359E0931F4A96DC018D919C91AE0141595F4F02
S11359F09E012F573F4FF90120813181220F331F20
S1135A00220F331F420F531F2B853C85240F351F54
S1135A10D9012C91FC0127838F819885880F991FC8
S1135A209E012F5F3F4F820F931F4A96DC014D91D9
S1135A305C912B853C85C901880F991F820F931FA8
S1135A409E012F5F3F4F820F931F8296FC0180813E
S1135A509181A281FA0180839183A2838F819885A9
S1135A60880F991F9E012F5F3F4F820F931F4A9605
S1135A70DC010D90BC91A02DCD57DF4FB983A883D5
S1135A80C358D040CE018F579F4FFC018081918134
S1135A909C01220F331F220F331F8B859C85820F9D
S1135AA0931F880F991F880F991F9E012F5F3F4FE7
S1135AB0820F931F8E96FC0180819181A281B38114
S1135AC0AC01BD01CD57DF4F88819981C358D040C7
S1135AD072D28F819885019698878F838F8198855C
S1135AE004970CF463CFCC57DF4F0FB6F894DEBFA6
S1135AF00FBECDBFDF91CF9108950F931F93CF9326
S1135B00DF93CDB7DEB7A2970FB6F894DEBF0FBE12
S1135B10CDBF98A38F8F66D7A82FCB018B839C838F
S1135B20AD83EF8DF8A18B819C81AD810EE110E0F6
S1135B302AE030E0AC016A2FCF0197D18F8D98A174
S1135B40FC0117823BD7A82FCB018E839F83A887A4
S1135B5021D7A82FCB0189879A87AB8757D7A82F3E
S1135B60CB018C879D87AE878CE0EFEFF8E0DE01F8
S1135B701F9601900D928A95E1F71B8E1C8E1D8E47
S1135B801E8E81E08B8F81E08D8F1A82198271C005
S1135B9089819A819C012F5F3F4F45E1429FC0015B
S1135BA0439F900D11242F8D38A1F901E80FF91F9F
S1135BB0FAA3E9A329813A81C901880F991F820FA9
S1135BC0931F9E012F5F3F4F820F931F0596FC0189
S1135BD080819181A2810EE110E02AE030E0AC01E5
S1135BE06A2F89A19AA141D19E01255E3F4F8981E7
S1135BF09A81820F931FFC0160812F8D38A1498106
S1135C005A8175E1749FC001759F900D1124820F14
S1135C10931F4C96FC01608389819A819C012F5FBC
S1135C203F4F45E1429FC001439F900D11242F8DAA
S1135C3038A1F901E80FF91FFAA3E9A389819A8130
S1135C40880F991F880F991F9E012F5F3F4F820F66
S1135C50931F0E96FC0180819181A281B381AC01D6
S1135C60BD0189A19AA1A7D189819A8101969A83BC
S1135C70898389819A8103970CF48ACF0000A296C4
S1135C800FB6F894DEBF0FBECDBFDF91CF911F9149
S1135C900F9108950F931F93CF93DF93CDB7DEB782
S1135CA0A0970FB6F894DEBF0FBECDBF98A38F8F19
S1135CB08F8D98A198878F830E944D229C878B8714
S1135CC08AE090E09A8789878F8198859BD4A82F52
S1135CD0CB018D879E87AF8781E090E09A8389838B
S1135CE02DC089819A8101979C012F5F3F4F45E127
